{
  "_format": "hh-sol-artifact-1",
  "contractName": "TelegramNFT",
  "sourceName": "contracts/Telegrambot.sol",
  "abi": [
    {
      "inputs": [],
      "stateMutability": "nonpayable",
      "type": "constructor"
    },
    {
      "inputs": [
        {
          "internalType": "address",
          "name": "sender",
          "type": "address"
        },
        {
          "internalType": "uint256",
          "name": "tokenId",
          "type": "uint256"
        },
        {
          "internalType": "address",
          "name": "owner",
          "type": "address"
        }
      ],
      "name": "ERC721IncorrectOwner",
      "type": "error"
    },
    {
      "inputs": [
        {
          "internalType": "address",
          "name": "operator",
          "type": "address"
        },
        {
          "internalType": "uint256",
          "name": "tokenId",
          "type": "uint256"
        }
      ],
      "name": "ERC721InsufficientApproval",
      "type": "error"
    },
    {
      "inputs": [
        {
          "internalType": "address",
          "name": "approver",
          "type": "address"
        }
      ],
      "name": "ERC721InvalidApprover",
      "type": "error"
    },
    {
      "inputs": [
        {
          "internalType": "address",
          "name": "operator",
          "type": "address"
        }
      ],
      "name": "ERC721InvalidOperator",
      "type": "error"
    },
    {
      "inputs": [
        {
          "internalType": "address",
          "name": "owner",
          "type": "address"
        }
      ],
      "name": "ERC721InvalidOwner",
      "type": "error"
    },
    {
      "inputs": [
        {
          "internalType": "address",
          "name": "receiver",
          "type": "address"
        }
      ],
      "name": "ERC721InvalidReceiver",
      "type": "error"
    },
    {
      "inputs": [
        {
          "internalType": "address",
          "name": "sender",
          "type": "address"
        }
      ],
      "name": "ERC721InvalidSender",
      "type": "error"
    },
    {
      "inputs": [
        {
          "internalType": "uint256",
          "name": "tokenId",
          "type": "uint256"
        }
      ],
      "name": "ERC721NonexistentToken",
      "type": "error"
    },
    {
      "inputs": [
        {
          "internalType": "address",
          "name": "owner",
          "type": "address"
        }
      ],
      "name": "OwnableInvalidOwner",
      "type": "error"
    },
    {
      "inputs": [
        {
          "internalType": "address",
          "name": "account",
          "type": "address"
        }
      ],
      "name": "OwnableUnauthorizedAccount",
      "type": "error"
    },
    {
      "anonymous": false,
      "inputs": [
        {
          "indexed": true,
          "internalType": "address",
          "name": "owner",
          "type": "address"
        },
        {
          "indexed": true,
          "internalType": "address",
          "name": "approved",
          "type": "address"
        },
        {
          "indexed": true,
          "internalType": "uint256",
          "name": "tokenId",
          "type": "uint256"
        }
      ],
      "name": "Approval",
      "type": "event"
    },
    {
      "anonymous": false,
      "inputs": [
        {
          "indexed": true,
          "internalType": "address",
          "name": "owner",
          "type": "address"
        },
        {
          "indexed": true,
          "internalType": "address",
          "name": "operator",
          "type": "address"
        },
        {
          "indexed": false,
          "internalType": "bool",
          "name": "approved",
          "type": "bool"
        }
      ],
      "name": "ApprovalForAll",
      "type": "event"
    },
    {
      "anonymous": false,
      "inputs": [
        {
          "indexed": false,
          "internalType": "uint256",
          "name": "_fromTokenId",
          "type": "uint256"
        },
        {
          "indexed": false,
          "internalType": "uint256",
          "name": "_toTokenId",
          "type": "uint256"
        }
      ],
      "name": "BatchMetadataUpdate",
      "type": "event"
    },
    {
      "anonymous": false,
      "inputs": [
        {
          "indexed": false,
          "internalType": "uint256",
          "name": "_tokenId",
          "type": "uint256"
        }
      ],
      "name": "MetadataUpdate",
      "type": "event"
    },
    {
      "anonymous": false,
      "inputs": [
        {
          "indexed": true,
          "internalType": "address",
          "name": "previousOwner",
          "type": "address"
        },
        {
          "indexed": true,
          "internalType": "address",
          "name": "newOwner",
          "type": "address"
        }
      ],
      "name": "OwnershipTransferred",
      "type": "event"
    },
    {
      "anonymous": false,
      "inputs": [
        {
          "indexed": true,
          "internalType": "address",
          "name": "from",
          "type": "address"
        },
        {
          "indexed": true,
          "internalType": "address",
          "name": "to",
          "type": "address"
        },
        {
          "indexed": true,
          "internalType": "uint256",
          "name": "tokenId",
          "type": "uint256"
        }
      ],
      "name": "Transfer",
      "type": "event"
    },
    {
      "inputs": [],
      "name": "MINT_COOLDOWN",
      "outputs": [
        {
          "internalType": "uint256",
          "name": "",
          "type": "uint256"
        }
      ],
      "stateMutability": "view",
      "type": "function"
    },
    {
      "inputs": [
        {
          "internalType": "address",
          "name": "to",
          "type": "address"
        },
        {
          "internalType": "uint256",
          "name": "tokenId",
          "type": "uint256"
        }
      ],
      "name": "approve",
      "outputs": [],
      "stateMutability": "nonpayable",
      "type": "function"
    },
    {
      "inputs": [
        {
          "internalType": "address",
          "name": "owner",
          "type": "address"
        }
      ],
      "name": "balanceOf",
      "outputs": [
        {
          "internalType": "uint256",
          "name": "",
          "type": "uint256"
        }
      ],
      "stateMutability": "view",
      "type": "function"
    },
    {
      "inputs": [],
      "name": "baseTokenURI",
      "outputs": [
        {
          "internalType": "string",
          "name": "",
          "type": "string"
        }
      ],
      "stateMutability": "view",
      "type": "function"
    },
    {
      "inputs": [
        {
          "internalType": "uint256",
          "name": "tokenId",
          "type": "uint256"
        }
      ],
      "name": "getApproved",
      "outputs": [
        {
          "internalType": "address",
          "name": "",
          "type": "address"
        }
      ],
      "stateMutability": "view",
      "type": "function"
    },
    {
      "inputs": [
        {
          "internalType": "address",
          "name": "owner",
          "type": "address"
        },
        {
          "internalType": "address",
          "name": "operator",
          "type": "address"
        }
      ],
      "name": "isApprovedForAll",
      "outputs": [
        {
          "internalType": "bool",
          "name": "",
          "type": "bool"
        }
      ],
      "stateMutability": "view",
      "type": "function"
    },
    {
      "inputs": [
        {
          "internalType": "address",
          "name": "",
          "type": "address"
        }
      ],
      "name": "lastMintTime",
      "outputs": [
        {
          "internalType": "uint256",
          "name": "",
          "type": "uint256"
        }
      ],
      "stateMutability": "view",
      "type": "function"
    },
    {
      "inputs": [
        {
          "internalType": "address",
          "name": "recipient",
          "type": "address"
        }
      ],
      "name": "mint",
      "outputs": [
        {
          "internalType": "uint256",
          "name": "",
          "type": "uint256"
        }
      ],
      "stateMutability": "nonpayable",
      "type": "function"
    },
    {
      "inputs": [],
      "name": "name",
      "outputs": [
        {
          "internalType": "string",
          "name": "",
          "type": "string"
        }
      ],
      "stateMutability": "view",
      "type": "function"
    },
    {
      "inputs": [],
      "name": "owner",
      "outputs": [
        {
          "internalType": "address",
          "name": "",
          "type": "address"
        }
      ],
      "stateMutability": "view",
      "type": "function"
    },
    {
      "inputs": [
        {
          "internalType": "uint256",
          "name": "tokenId",
          "type": "uint256"
        }
      ],
      "name": "ownerOf",
      "outputs": [
        {
          "internalType": "address",
          "name": "",
          "type": "address"
        }
      ],
      "stateMutability": "view",
      "type": "function"
    },
    {
      "inputs": [],
      "name": "renounceOwnership",
      "outputs": [],
      "stateMutability": "nonpayable",
      "type": "function"
    },
    {
      "inputs": [
        {
          "internalType": "address",
          "name": "from",
          "type": "address"
        },
        {
          "internalType": "address",
          "name": "to",
          "type": "address"
        },
        {
          "internalType": "uint256",
          "name": "tokenId",
          "type": "uint256"
        }
      ],
      "name": "safeTransferFrom",
      "outputs": [],
      "stateMutability": "nonpayable",
      "type": "function"
    },
    {
      "inputs": [
        {
          "internalType": "address",
          "name": "from",
          "type": "address"
        },
        {
          "internalType": "address",
          "name": "to",
          "type": "address"
        },
        {
          "internalType": "uint256",
          "name": "tokenId",
          "type": "uint256"
        },
        {
          "internalType": "bytes",
          "name": "data",
          "type": "bytes"
        }
      ],
      "name": "safeTransferFrom",
      "outputs": [],
      "stateMutability": "nonpayable",
      "type": "function"
    },
    {
      "inputs": [
        {
          "internalType": "address",
          "name": "operator",
          "type": "address"
        },
        {
          "internalType": "bool",
          "name": "approved",
          "type": "bool"
        }
      ],
      "name": "setApprovalForAll",
      "outputs": [],
      "stateMutability": "nonpayable",
      "type": "function"
    },
    {
      "inputs": [
        {
          "internalType": "string",
          "name": "_newBaseURI",
          "type": "string"
        }
      ],
      "name": "setBaseURI",
      "outputs": [],
      "stateMutability": "nonpayable",
      "type": "function"
    },
    {
      "inputs": [
        {
          "internalType": "bytes4",
          "name": "interfaceId",
          "type": "bytes4"
        }
      ],
      "name": "supportsInterface",
      "outputs": [
        {
          "internalType": "bool",
          "name": "",
          "type": "bool"
        }
      ],
      "stateMutability": "view",
      "type": "function"
    },
    {
      "inputs": [],
      "name": "symbol",
      "outputs": [
        {
          "internalType": "string",
          "name": "",
          "type": "string"
        }
      ],
      "stateMutability": "view",
      "type": "function"
    },
    {
      "inputs": [
        {
          "internalType": "address",
          "name": "user",
          "type": "address"
        }
      ],
      "name": "timeUntilNextMint",
      "outputs": [
        {
          "internalType": "uint256",
          "name": "",
          "type": "uint256"
        }
      ],
      "stateMutability": "view",
      "type": "function"
    },
    {
      "inputs": [
        {
          "internalType": "uint256",
          "name": "tokenId",
          "type": "uint256"
        }
      ],
      "name": "tokenURI",
      "outputs": [
        {
          "internalType": "string",
          "name": "",
          "type": "string"
        }
      ],
      "stateMutability": "view",
      "type": "function"
    },
    {
      "inputs": [
        {
          "internalType": "address",
          "name": "from",
          "type": "address"
        },
        {
          "internalType": "address",
          "name": "to",
          "type": "address"
        },
        {
          "internalType": "uint256",
          "name": "tokenId",
          "type": "uint256"
        }
      ],
      "name": "transferFrom",
      "outputs": [],
      "stateMutability": "nonpayable",
      "type": "function"
    },
    {
      "inputs": [
        {
          "internalType": "address",
          "name": "newOwner",
          "type": "address"
        }
      ],
      "name": "transferOwnership",
      "outputs": [],
      "stateMutability": "nonpayable",
      "type": "function"
    }
  ],
  "bytecode": "0x60806040523480156200001157600080fd5b50336040518060400160405280600b81526020017f54656c656772616d4e46540000000000000000000000000000000000000000008152506040518060400160405280600581526020017f54474e46540000000000000000000000000000000000000000000000000000008152508160009081620000909190620004b9565b508060019081620000a29190620004b9565b505050600073ffffffffffffffffffffffffffffffffffffffff168173ffffffffffffffffffffffffffffffffffffffff16036200011a5760006040517f1e4fbdf7000000000000000000000000000000000000000000000000000000008152600401620001119190620005e5565b60405180910390fd5b6200012b816200017960201b60201c565b506040518060400160405280601581526020017f697066733a2f2f594f55525f495046535f4349442f000000000000000000000081525060099081620001729190620004b9565b5062000602565b6000600760009054906101000a900473ffffffffffffffffffffffffffffffffffffffff16905081600760006101000a81548173ffffffffffffffffffffffffffffffffffffffff021916908373ffffffffffffffffffffffffffffffffffffffff1602179055508173ffffffffffffffffffffffffffffffffffffffff168173ffffffffffffffffffffffffffffffffffffffff167f8be0079c531659141344cd1fd0a4f28419497f9722a3daafe3b4186f6b6457e060405160405180910390a35050565b600081519050919050565b7f4e487b7100000000000000000000000000000000000000000000000000000000600052604160045260246000fd5b7f4e487b7100000000000000000000000000000000000000000000000000000000600052602260045260246000fd5b60006002820490506001821680620002c157607f821691505b602082108103620002d757620002d662000279565b5b50919050565b60008190508160005260206000209050919050565b60006020601f8301049050919050565b600082821b905092915050565b600060088302620003417fffffffffffffffffffffffffffffffffffffffffffffffffffffffffffffffff8262000302565b6200034d868362000302565b95508019841693508086168417925050509392505050565b6000819050919050565b6000819050919050565b60006200039a620003946200038e8462000365565b6200036f565b62000365565b9050919050565b6000819050919050565b620003b68362000379565b620003ce620003c582620003a1565b8484546200030f565b825550505050565b600090565b620003e5620003d6565b620003f2818484620003ab565b505050565b5b818110156200041a576200040e600082620003db565b600181019050620003f8565b5050565b601f82111562000469576200043381620002dd565b6200043e84620002f2565b810160208510156200044e578190505b620004666200045d85620002f2565b830182620003f7565b50505b505050565b600082821c905092915050565b60006200048e600019846008026200046e565b1980831691505092915050565b6000620004a983836200047b565b9150826002028217905092915050565b620004c4826200023f565b67ffffffffffffffff811115620004e057620004df6200024a565b5b620004ec8254620002a8565b620004f98282856200041e565b600060209050601f8311600181146200053157600084156200051c578287015190505b6200052885826200049b565b86555062000598565b601f1984166200054186620002dd565b60005b828110156200056b5784890151825560018201915060208501945060208101905062000544565b868310156200058b578489015162000587601f8916826200047b565b8355505b6001600288020188555050505b505050505050565b600073ffffffffffffffffffffffffffffffffffffffff82169050919050565b6000620005cd82620005a0565b9050919050565b620005df81620005c0565b82525050565b6000602082019050620005fc6000830184620005d4565b92915050565b612d2480620006126000396000f3fe608060405234801561001057600080fd5b50600436106101425760003560e01c806370a08231116100b8578063b88d4fde1161007c578063b88d4fde14610387578063c87b56dd146103a3578063d547cfb7146103d3578063e985e9c5146103f1578063f2fde38b14610421578063f7ee7a431461043d57610142565b806370a08231146102f5578063715018a6146103255780638da5cb5b1461032f57806395d89b411461034d578063a22cb4651461036b57610142565b806323b872dd1161010a57806323b872dd1461021157806342842e0e1461022d57806355f804b3146102495780636352211e146102655780636a627842146102955780636aa71d18146102c557610142565b806301ffc9a71461014757806306fdde0314610177578063081812fc14610195578063095ea7b3146101c55780631306834d146101e1575b600080fd5b610161600480360381019061015c9190611f83565b61045b565b60405161016e9190611fcb565b60405180910390f35b61017f61046d565b60405161018c9190612076565b60405180910390f35b6101af60048036038101906101aa91906120ce565b6104ff565b6040516101bc919061213c565b60405180910390f35b6101df60048036038101906101da9190612183565b61051b565b005b6101fb60048036038101906101f691906121c3565b610531565b60405161020891906121ff565b60405180910390f35b61022b6004803603810190610226919061221a565b6105ad565b005b6102476004803603810190610242919061221a565b6106af565b005b610263600480360381019061025e91906123a2565b6106cf565b005b61027f600480360381019061027a91906120ce565b6106ea565b60405161028c919061213c565b60405180910390f35b6102af60048036038101906102aa91906121c3565b6106fc565b6040516102bc91906121ff565b60405180910390f35b6102df60048036038101906102da91906121c3565b610834565b6040516102ec91906121ff565b60405180910390f35b61030f600480360381019061030a91906121c3565b61084c565b60405161031c91906121ff565b60405180910390f35b61032d610906565b005b61033761091a565b604051610344919061213c565b60405180910390f35b610355610944565b6040516103629190612076565b60405180910390f35b61038560048036038101906103809190612417565b6109d6565b005b6103a1600480360381019061039c91906124f8565b6109ec565b005b6103bd60048036038101906103b891906120ce565b610a11565b6040516103ca9190612076565b60405180910390f35b6103db610a23565b6040516103e89190612076565b60405180910390f35b61040b6004803603810190610406919061257b565b610ab1565b6040516104189190611fcb565b60405180910390f35b61043b600480360381019061043691906121c3565b610b45565b005b610445610bcb565b60405161045291906121ff565b60405180910390f35b600061046682610bd2565b9050919050565b60606000805461047c906125ea565b80601f01602080910402602001604051908101604052809291908181526020018280546104a8906125ea565b80156104f55780601f106104ca576101008083540402835291602001916104f5565b820191906000526020600020905b8154815290600101906020018083116104d857829003601f168201915b5050505050905090565b600061050a82610c33565b5061051482610cbb565b9050919050565b61052d8282610528610cf8565b610d00565b5050565b600080600a60008473ffffffffffffffffffffffffffffffffffffffff1673ffffffffffffffffffffffffffffffffffffffff168152602001908152602001600020544261057f919061264a565b90506201518081106105955760009150506105a8565b80620151806105a4919061264a565b9150505b919050565b600073ffffffffffffffffffffffffffffffffffffffff168273ffffffffffffffffffffffffffffffffffffffff160361061f5760006040517f64a0ae92000000000000000000000000000000000000000000000000000000008152600401610616919061213c565b60405180910390fd5b6000610633838361062e610cf8565b610d12565b90508373ffffffffffffffffffffffffffffffffffffffff168173ffffffffffffffffffffffffffffffffffffffff16146106a9578382826040517f64283d7b0000000000000000000000000000000000000000000000000000000081526004016106a09392919061267e565b60405180910390fd5b50505050565b6106ca838383604051806020016040528060008152506109ec565b505050565b6106d7610f2c565b80600990816106e69190612861565b5050565b60006106f582610c33565b9050919050565b600062015180600a60003373ffffffffffffffffffffffffffffffffffffffff1673ffffffffffffffffffffffffffffffffffffffff1681526020019081526020016000205461074c9190612933565b42101561078e576040517f08c379a0000000000000000000000000000000000000000000000000000000008152600401610785906129b3565b60405180910390fd5b6000600860008154809291906107a3906129d3565b9190505590506107b38382610fb3565b6107e78160096107c284610fd1565b6040516020016107d3929190612ada565b604051602081830303815290604052611131565b42600a60003373ffffffffffffffffffffffffffffffffffffffff1673ffffffffffffffffffffffffffffffffffffffff1681526020019081526020016000208190555080915050919050565b600a6020528060005260406000206000915090505481565b60008073ffffffffffffffffffffffffffffffffffffffff168273ffffffffffffffffffffffffffffffffffffffff16036108bf5760006040517f89c62b640000000000000000000000000000000000000000000000000000000081526004016108b6919061213c565b60405180910390fd5b600360008373ffffffffffffffffffffffffffffffffffffffff1673ffffffffffffffffffffffffffffffffffffffff168152602001908152602001600020549050919050565b61090e610f2c565b610918600061118d565b565b6000600760009054906101000a900473ffffffffffffffffffffffffffffffffffffffff16905090565b606060018054610953906125ea565b80601f016020809104026020016040519081016040528092919081815260200182805461097f906125ea565b80156109cc5780601f106109a1576101008083540402835291602001916109cc565b820191906000526020600020905b8154815290600101906020018083116109af57829003601f168201915b5050505050905090565b6109e86109e1610cf8565b8383611253565b5050565b6109f78484846105ad565b610a0b610a02610cf8565b858585856113c2565b50505050565b6060610a1c82611573565b9050919050565b60098054610a30906125ea565b80601f0160208091040260200160405190810160405280929190818152602001828054610a5c906125ea565b8015610aa95780601f10610a7e57610100808354040283529160200191610aa9565b820191906000526020600020905b815481529060010190602001808311610a8c57829003601f168201915b505050505081565b6000600560008473ffffffffffffffffffffffffffffffffffffffff1673ffffffffffffffffffffffffffffffffffffffff16815260200190815260200160002060008373ffffffffffffffffffffffffffffffffffffffff1673ffffffffffffffffffffffffffffffffffffffff16815260200190815260200160002060009054906101000a900460ff16905092915050565b610b4d610f2c565b600073ffffffffffffffffffffffffffffffffffffffff168173ffffffffffffffffffffffffffffffffffffffff1603610bbf5760006040517f1e4fbdf7000000000000000000000000000000000000000000000000000000008152600401610bb6919061213c565b60405180910390fd5b610bc88161118d565b50565b6201518081565b6000634906490660e01b7bffffffffffffffffffffffffffffffffffffffffffffffffffffffff1916827bffffffffffffffffffffffffffffffffffffffffffffffffffffffff19161480610c2c5750610c2b82611686565b5b9050919050565b600080610c3f83611768565b9050600073ffffffffffffffffffffffffffffffffffffffff168173ffffffffffffffffffffffffffffffffffffffff1603610cb257826040517f7e273289000000000000000000000000000000000000000000000000000000008152600401610ca991906121ff565b60405180910390fd5b80915050919050565b60006004600083815260200190815260200160002060009054906101000a900473ffffffffffffffffffffffffffffffffffffffff169050919050565b600033905090565b610d0d83838360016117a5565b505050565b600080610d1e84611768565b9050600073ffffffffffffffffffffffffffffffffffffffff168373ffffffffffffffffffffffffffffffffffffffff1614610d6057610d5f81848661196a565b5b600073ffffffffffffffffffffffffffffffffffffffff168173ffffffffffffffffffffffffffffffffffffffff1614610df157610da26000856000806117a5565b6001600360008373ffffffffffffffffffffffffffffffffffffffff1673ffffffffffffffffffffffffffffffffffffffff168152602001908152602001600020600082825403925050819055505b600073ffffffffffffffffffffffffffffffffffffffff168573ffffffffffffffffffffffffffffffffffffffff1614610e74576001600360008773ffffffffffffffffffffffffffffffffffffffff1673ffffffffffffffffffffffffffffffffffffffff168152602001908152602001600020600082825401925050819055505b846002600086815260200190815260200160002060006101000a81548173ffffffffffffffffffffffffffffffffffffffff021916908373ffffffffffffffffffffffffffffffffffffffff160217905550838573ffffffffffffffffffffffffffffffffffffffff168273ffffffffffffffffffffffffffffffffffffffff167fddf252ad1be2c89b69c2b068fc378daa952ba7f163c4a11628f55a4df523b3ef60405160405180910390a4809150509392505050565b610f34610cf8565b73ffffffffffffffffffffffffffffffffffffffff16610f5261091a565b73ffffffffffffffffffffffffffffffffffffffff1614610fb157610f75610cf8565b6040517f118cdaa7000000000000000000000000000000000000000000000000000000008152600401610fa8919061213c565b60405180910390fd5b565b610fcd828260405180602001604052806000815250611a2e565b5050565b606060008203611018576040518060400160405280600181526020017f3000000000000000000000000000000000000000000000000000000000000000815250905061112c565b600082905060005b6000821461104a578080611033906129d3565b915050600a826110439190612b2d565b9150611020565b60008167ffffffffffffffff81111561106657611065612277565b5b6040519080825280601f01601f1916602001820160405280156110985781602001600182028036833780820191505090505b5090505b60008514611125576001826110b1919061264a565b9150600a856110c09190612b5e565b60306110cc9190612933565b60f81b8183815181106110e2576110e1612b8f565b5b60200101907effffffffffffffffffffffffffffffffffffffffffffffffffffffffffffff1916908160001a905350600a8561111e9190612b2d565b945061109c565b8093505050505b919050565b806006600084815260200190815260200160002090816111519190612861565b507ff8e1a15aba9398e019f0b49df1a4fde98ee17ae345cb5f6b5e2c27f5033e8ce78260405161118191906121ff565b60405180910390a15050565b6000600760009054906101000a900473ffffffffffffffffffffffffffffffffffffffff16905081600760006101000a81548173ffffffffffffffffffffffffffffffffffffffff021916908373ffffffffffffffffffffffffffffffffffffffff1602179055508173ffffffffffffffffffffffffffffffffffffffff168173ffffffffffffffffffffffffffffffffffffffff167f8be0079c531659141344cd1fd0a4f28419497f9722a3daafe3b4186f6b6457e060405160405180910390a35050565b600073ffffffffffffffffffffffffffffffffffffffff168273ffffffffffffffffffffffffffffffffffffffff16036112c457816040517f5b08ba180000000000000000000000000000000000000000000000000000000081526004016112bb919061213c565b60405180910390fd5b80600560008573ffffffffffffffffffffffffffffffffffffffff1673ffffffffffffffffffffffffffffffffffffffff16815260200190815260200160002060008473ffffffffffffffffffffffffffffffffffffffff1673ffffffffffffffffffffffffffffffffffffffff16815260200190815260200160002060006101000a81548160ff0219169083151502179055508173ffffffffffffffffffffffffffffffffffffffff168373ffffffffffffffffffffffffffffffffffffffff167f17307eab39ab6107e8899845ad3d59bd9653f200f220920489ca2b5937696c31836040516113b59190611fcb565b60405180910390a3505050565b60008373ffffffffffffffffffffffffffffffffffffffff163b111561156c578273ffffffffffffffffffffffffffffffffffffffff1663150b7a02868685856040518563ffffffff1660e01b81526004016114219493929190612c13565b6020604051808303816000875af192505050801561145d57506040513d601f19601f8201168201806040525081019061145a9190612c74565b60015b6114e1573d806000811461148d576040519150601f19603f3d011682016040523d82523d6000602084013e611492565b606091505b5060008151036114d957836040517f64a0ae920000000000000000000000000000000000000000000000000000000081526004016114d0919061213c565b60405180910390fd5b805181602001fd5b63150b7a0260e01b7bffffffffffffffffffffffffffffffffffffffffffffffffffffffff1916817bffffffffffffffffffffffffffffffffffffffffffffffffffffffff19161461156a57836040517f64a0ae92000000000000000000000000000000000000000000000000000000008152600401611561919061213c565b60405180910390fd5b505b5050505050565b606061157e82610c33565b50600060066000848152602001908152602001600020805461159f906125ea565b80601f01602080910402602001604051908101604052809291908181526020018280546115cb906125ea565b80156116185780601f106115ed57610100808354040283529160200191611618565b820191906000526020600020905b8154815290600101906020018083116115fb57829003601f168201915b505050505090506000611629611a52565b9050600081510361163e578192505050611681565b60008251111561167357808260405160200161165b929190612ca1565b60405160208183030381529060405292505050611681565b61167c84611a69565b925050505b919050565b60007f80ac58cd000000000000000000000000000000000000000000000000000000007bffffffffffffffffffffffffffffffffffffffffffffffffffffffff1916827bffffffffffffffffffffffffffffffffffffffffffffffffffffffff1916148061175157507f5b5e139f000000000000000000000000000000000000000000000000000000007bffffffffffffffffffffffffffffffffffffffffffffffffffffffff1916827bffffffffffffffffffffffffffffffffffffffffffffffffffffffff1916145b80611761575061176082611ad2565b5b9050919050565b60006002600083815260200190815260200160002060009054906101000a900473ffffffffffffffffffffffffffffffffffffffff169050919050565b80806117de5750600073ffffffffffffffffffffffffffffffffffffffff168273ffffffffffffffffffffffffffffffffffffffff1614155b156119125760006117ee84610c33565b9050600073ffffffffffffffffffffffffffffffffffffffff168373ffffffffffffffffffffffffffffffffffffffff161415801561185957508273ffffffffffffffffffffffffffffffffffffffff168173ffffffffffffffffffffffffffffffffffffffff1614155b801561186c575061186a8184610ab1565b155b156118ae57826040517fa9fbf51f0000000000000000000000000000000000000000000000000000000081526004016118a5919061213c565b60405180910390fd5b811561191057838573ffffffffffffffffffffffffffffffffffffffff168273ffffffffffffffffffffffffffffffffffffffff167f8c5be1e5ebec7d5bd14f71427d1e84f3dd0314c0f7b2291e5b200ac8c7c3b92560405160405180910390a45b505b836004600085815260200190815260200160002060006101000a81548173ffffffffffffffffffffffffffffffffffffffff021916908373ffffffffffffffffffffffffffffffffffffffff16021790555050505050565b611975838383611b3c565b611a2957600073ffffffffffffffffffffffffffffffffffffffff168373ffffffffffffffffffffffffffffffffffffffff16036119ea57806040517f7e2732890000000000000000000000000000000000000000000000000000000081526004016119e191906121ff565b60405180910390fd5b81816040517f177e802f000000000000000000000000000000000000000000000000000000008152600401611a20929190612cc5565b60405180910390fd5b505050565b611a388383611bfd565b611a4d611a43610cf8565b60008585856113c2565b505050565b606060405180602001604052806000815250905090565b6060611a7482610c33565b506000611a7f611a52565b90506000815111611a9f5760405180602001604052806000815250611aca565b80611aa984611cf6565b604051602001611aba929190612ca1565b6040516020818303038152906040525b915050919050565b60007f01ffc9a7000000000000000000000000000000000000000000000000000000007bffffffffffffffffffffffffffffffffffffffffffffffffffffffff1916827bffffffffffffffffffffffffffffffffffffffffffffffffffffffff1916149050919050565b60008073ffffffffffffffffffffffffffffffffffffffff168373ffffffffffffffffffffffffffffffffffffffff1614158015611bf457508273ffffffffffffffffffffffffffffffffffffffff168473ffffffffffffffffffffffffffffffffffffffff161480611bb55750611bb48484610ab1565b5b80611bf357508273ffffffffffffffffffffffffffffffffffffffff16611bdb83610cbb565b73ffffffffffffffffffffffffffffffffffffffff16145b5b90509392505050565b600073ffffffffffffffffffffffffffffffffffffffff168273ffffffffffffffffffffffffffffffffffffffff1603611c6f5760006040517f64a0ae92000000000000000000000000000000000000000000000000000000008152600401611c66919061213c565b60405180910390fd5b6000611c7d83836000610d12565b9050600073ffffffffffffffffffffffffffffffffffffffff168173ffffffffffffffffffffffffffffffffffffffff1614611cf15760006040517f73c6ac6e000000000000000000000000000000000000000000000000000000008152600401611ce8919061213c565b60405180910390fd5b505050565b606060006001611d0584611dc4565b01905060008167ffffffffffffffff811115611d2457611d23612277565b5b6040519080825280601f01601f191660200182016040528015611d565781602001600182028036833780820191505090505b509050600082602001820190505b600115611db9578080600190039150507f3031323334353637383961626364656600000000000000000000000000000000600a86061a8153600a8581611dad57611dac612afe565b5b04945060008503611d64575b819350505050919050565b600080600090507a184f03e93ff9f4daa797ed6e38ed64bf6a1f0100000000000000008310611e22577a184f03e93ff9f4daa797ed6e38ed64bf6a1f0100000000000000008381611e1857611e17612afe565b5b0492506040810190505b6d04ee2d6d415b85acef81000000008310611e5f576d04ee2d6d415b85acef81000000008381611e5557611e54612afe565b5b0492506020810190505b662386f26fc100008310611e8e57662386f26fc100008381611e8457611e83612afe565b5b0492506010810190505b6305f5e1008310611eb7576305f5e1008381611ead57611eac612afe565b5b0492506008810190505b6127108310611edc576127108381611ed257611ed1612afe565b5b0492506004810190505b60648310611eff5760648381611ef557611ef4612afe565b5b0492506002810190505b600a8310611f0e576001810190505b80915050919050565b6000604051905090565b600080fd5b600080fd5b60007fffffffff0000000000000000000000000000000000000000000000000000000082169050919050565b611f6081611f2b565b8114611f6b57600080fd5b50565b600081359050611f7d81611f57565b92915050565b600060208284031215611f9957611f98611f21565b5b6000611fa784828501611f6e565b91505092915050565b60008115159050919050565b611fc581611fb0565b82525050565b6000602082019050611fe06000830184611fbc565b92915050565b600081519050919050565b600082825260208201905092915050565b60005b83811015612020578082015181840152602081019050612005565b60008484015250505050565b6000601f19601f8301169050919050565b600061204882611fe6565b6120528185611ff1565b9350612062818560208601612002565b61206b8161202c565b840191505092915050565b60006020820190508181036000830152612090818461203d565b905092915050565b6000819050919050565b6120ab81612098565b81146120b657600080fd5b50565b6000813590506120c8816120a2565b92915050565b6000602082840312156120e4576120e3611f21565b5b60006120f2848285016120b9565b91505092915050565b600073ffffffffffffffffffffffffffffffffffffffff82169050919050565b6000612126826120fb565b9050919050565b6121368161211b565b82525050565b6000602082019050612151600083018461212d565b92915050565b6121608161211b565b811461216b57600080fd5b50565b60008135905061217d81612157565b92915050565b6000806040838503121561219a57612199611f21565b5b60006121a88582860161216e565b92505060206121b9858286016120b9565b9150509250929050565b6000602082840312156121d9576121d8611f21565b5b60006121e78482850161216e565b91505092915050565b6121f981612098565b82525050565b600060208201905061221460008301846121f0565b92915050565b60008060006060848603121561223357612232611f21565b5b60006122418682870161216e565b93505060206122528682870161216e565b9250506040612263868287016120b9565b9150509250925092565b600080fd5b600080fd5b7f4e487b7100000000000000000000000000000000000000000000000000000000600052604160045260246000fd5b6122af8261202c565b810181811067ffffffffffffffff821117156122ce576122cd612277565b5b80604052505050565b60006122e1611f17565b90506122ed82826122a6565b919050565b600067ffffffffffffffff82111561230d5761230c612277565b5b6123168261202c565b9050602081019050919050565b82818337600083830152505050565b6000612345612340846122f2565b6122d7565b90508281526020810184848401111561236157612360612272565b5b61236c848285612323565b509392505050565b600082601f8301126123895761238861226d565b5b8135612399848260208601612332565b91505092915050565b6000602082840312156123b8576123b7611f21565b5b600082013567ffffffffffffffff8111156123d6576123d5611f26565b5b6123e284828501612374565b91505092915050565b6123f481611fb0565b81146123ff57600080fd5b50565b600081359050612411816123eb565b92915050565b6000806040838503121561242e5761242d611f21565b5b600061243c8582860161216e565b925050602061244d85828601612402565b9150509250929050565b600067ffffffffffffffff82111561247257612471612277565b5b61247b8261202c565b9050602081019050919050565b600061249b61249684612457565b6122d7565b9050828152602081018484840111156124b7576124b6612272565b5b6124c2848285612323565b509392505050565b600082601f8301126124df576124de61226d565b5b81356124ef848260208601612488565b91505092915050565b6000806000806080858703121561251257612511611f21565b5b60006125208782880161216e565b94505060206125318782880161216e565b9350506040612542878288016120b9565b925050606085013567ffffffffffffffff81111561256357612562611f26565b5b61256f878288016124ca565b91505092959194509250565b6000806040838503121561259257612591611f21565b5b60006125a08582860161216e565b92505060206125b18582860161216e565b9150509250929050565b7f4e487b7100000000000000000000000000000000000000000000000000000000600052602260045260246000fd5b6000600282049050600182168061260257607f821691505b602082108103612615576126146125bb565b5b50919050565b7f4e487b7100000000000000000000000000000000000000000000000000000000600052601160045260246000fd5b600061265582612098565b915061266083612098565b92508282039050818111156126785761267761261b565b5b92915050565b6000606082019050612693600083018661212d565b6126a060208301856121f0565b6126ad604083018461212d565b949350505050565b60008190508160005260206000209050919050565b60006020601f8301049050919050565b600082821b905092915050565b6000600883026127177fffffffffffffffffffffffffffffffffffffffffffffffffffffffffffffffff826126da565b61272186836126da565b95508019841693508086168417925050509392505050565b6000819050919050565b600061275e61275961275484612098565b612739565b612098565b9050919050565b6000819050919050565b61277883612743565b61278c61278482612765565b8484546126e7565b825550505050565b600090565b6127a1612794565b6127ac81848461276f565b505050565b5b818110156127d0576127c5600082612799565b6001810190506127b2565b5050565b601f821115612815576127e6816126b5565b6127ef846126ca565b810160208510156127fe578190505b61281261280a856126ca565b8301826127b1565b50505b505050565b600082821c905092915050565b60006128386000198460080261281a565b1980831691505092915050565b60006128518383612827565b9150826002028217905092915050565b61286a82611fe6565b67ffffffffffffffff81111561288357612882612277565b5b61288d82546125ea565b6128988282856127d4565b600060209050601f8311600181146128cb57600084156128b9578287015190505b6128c38582612845565b86555061292b565b601f1984166128d9866126b5565b60005b82811015612901578489015182556001820191506020850194506020810190506128dc565b8683101561291e578489015161291a601f891682612827565b8355505b6001600288020188555050505b505050505050565b600061293e82612098565b915061294983612098565b92508282019050808211156129615761296061261b565b5b92915050565b7f4d757374207761697420323420686f757273206265747765656e206d696e7473600082015250565b600061299d602083611ff1565b91506129a882612967565b602082019050919050565b600060208201905081810360008301526129cc81612990565b9050919050565b60006129de82612098565b91507fffffffffffffffffffffffffffffffffffffffffffffffffffffffffffffffff8203612a1057612a0f61261b565b5b600182019050919050565b600081905092915050565b60008154612a33816125ea565b612a3d8186612a1b565b94506001821660008114612a585760018114612a6d57612aa0565b60ff1983168652811515820286019350612aa0565b612a76856126b5565b60005b83811015612a9857815481890152600182019150602081019050612a79565b838801955050505b50505092915050565b6000612ab482611fe6565b612abe8185612a1b565b9350612ace818560208601612002565b80840191505092915050565b6000612ae68285612a26565b9150612af28284612aa9565b91508190509392505050565b7f4e487b7100000000000000000000000000000000000000000000000000000000600052601260045260246000fd5b6000612b3882612098565b9150612b4383612098565b925082612b5357612b52612afe565b5b828204905092915050565b6000612b6982612098565b9150612b7483612098565b925082612b8457612b83612afe565b5b828206905092915050565b7f4e487b7100000000000000000000000000000000000000000000000000000000600052603260045260246000fd5b600081519050919050565b600082825260208201905092915050565b6000612be582612bbe565b612bef8185612bc9565b9350612bff818560208601612002565b612c088161202c565b840191505092915050565b6000608082019050612c28600083018761212d565b612c35602083018661212d565b612c4260408301856121f0565b8181036060830152612c548184612bda565b905095945050505050565b600081519050612c6e81611f57565b92915050565b600060208284031215612c8a57612c89611f21565b5b6000612c9884828501612c5f565b91505092915050565b6000612cad8285612aa9565b9150612cb98284612aa9565b91508190509392505050565b6000604082019050612cda600083018561212d565b612ce760208301846121f0565b939250505056fea2646970667358221220c58f36cdc4c63c7e5563233e36207edf1257a6265442c8237d6efd862820310f64736f6c63430008140033",
  "linkReferences": {},
  "deployedLinkReferences": {}
}